:100000000C94AF040C94F6040C94F6040C94221295
:100010000C94F6040C94F6040C94F6040C94F60478
:100020000C94F6040C94F6040C941A240C94EC240E
:100030000C944A1F0C94F6040C94F6040C94F604E9
:100040000C94F6040C94F6040C94F6040C94F60448
:100050000C94F6040C94A31F0C94F6040C94F60470
:100060000C94F6040C94F6040C94F6040C94F60428
:100070000C94F6040C94F6040C94F6040C94F60418
:100080000C94F6040C94F6040C94F6040C94F60408
:100090000C94F6040C94F6040C94F6040C94F604F8
:1000A0000C94F6040C94F6040C94F6045B155B15A2
:1000B0008D158D15DA15011701170117F815911611
:1000C000A216A2169D179D17AF17AF17A617AF1749
:1000D000AF17AF179D179D17AB17AF17AF17AB171C
:1000E00059258025782680257826CC25EF25782669
:1000F00046265526165C1E001F0020002100220007
:100100002B0014001A00080015001700356F0400BA
:100110001600070009000A00E1001D001B00060090
:10012000190005000000E000E300E2002C412D0072
:100130002A00270026002500240023003100130098
:1001400012000C0018001C00280033000F000E00E5
:100150000D000B00E50038003700360010001100DC
:10016000000030002F0034422C002E6735001E02A4
:100170001F022002210222023A003B003C003D0007
:100180003E003F00010001000100010001000100EC
:100190000100010001000601010001000000010052
:1001A0000100010001002C08350227022602250269
:1001B0002402230245004400430042004100400065
:1001C00001000100010001000100010031023000C6
:1001D0002F002D022D000100000030022F022A5DA9
:1001E000010001003A003B003C003D003E003F00A2
:1001F000400041004200430044004500010001006E
:1002000001000100010001000100010001000100E6
:1002100001000100000001000100010001000100D7
:1002200001004C00BB00AE00BC0001000100270033
:100230002B0152002B03230000004F004F00510000
:100240005000000001000100A900AA00A8002E0231
:100250000000010001000100010003530000000044
:10026000000000000000000000000000000000008E
:10027000000000000000000000000000000000007E
:10028000000000000000000000000000000001006D
:100290000100010001000000C55CC25C26002500D1
:1002A00024000000C65CC35C230022002100000083
:1002B000C95CC75C20001F001E000000CA5CC85C4F
:1002C0003700270027000000000001002A0001007D
:1002D0000100035300AE00AF00DA02818FD9F1DBD9
:1002E00040A4A62EAF00A0C000A1C800AED580A833
:1002F0001FD300408D1420000000000000003E5B72
:100300004F5B3E003E6B4F6B3E001C3E7C3E1C0034
:10031000183C7E3C18001C577D571C001C5E7F5EFD
:100320001C0000183C180000FFE7C3E7FF0000189E
:1003300024180000FFE7DBE7FF0030483A060E0014
:10034000262979292600407F05050700407F0525DD
:100350003F005A3CE73C5A007F3E1C1C0800081C2A
:100360001C3E7F0014227F2214005F5F005F5F004D
:1003700006097F017F00006689956A006060606001
:10038000600094A2FFA2940008047E0408001020DC
:100390007E20100008082A1C0800081C2A080800F3
:1003A0001E10101010000C1E0C1E0C0030383E38B1
:1003B0003000060E3E0E06000000000000000000A7
:1003C0005F000000000700070000147F147F140086
:1003D000242A7F2A1200231308646200364956201B
:1003E0005000000807030000001C224100000041EB
:1003F000221C00002A1C7F1C2A0008083E08080056
:1004000000807030000008080808080000006060E4
:1004100000002010080402003E5149453E00004201
:100420007F4000007249494946002141494D33004F
:100430001814127F10002745454539003C4A4949A8
:100440003100412111090700364949493600464922
:1004500049291E0000001400000000403400000084
:100460000008142241001414141414000041221432
:1004700008000201590906003E415D594E007C12F8
:1004800011127C007F49494936003E41414122001A
:100490007F4141413E007F49494941007F090909A7
:1004A00001003E41415173007F0808087F00004170
:1004B0007F4100002040413F01007F08142241009D
:1004C0007F40404040007F021C027F007F040810F4
:1004D0007F003E4141413E007F09090906003E413F
:1004E00051215E007F0919294600264949493200F9
:1004F00003017F0103003F4040403F001F20402098
:100500001F003F4038403F00631408146300030499
:10051000780403006159494D4300007F4141410087
:10052000020408102000004141417F000402010242
:1005300004004040404040000003070800002054F1
:10054000547840007F28444438003844444428000C
:10055000384444287F0038545454180000087E0959
:1005600002001824241C78007F080404780000444A
:100570007D4000002040403D00007F1028440000E6
:1005800000417F4000007C04780478007C0804046B
:1005900078003844444438007C1824241800182477
:1005A00024187C007C080404080048545454240097
:1005B00004043F4424003C4040207C001C20402098
:1005C0001C003C4030403C004428102844004C9023
:1005D00090907C004464544C440000083641000074
:1005E000000077000000004136080000020102040C
:1005F00002003C2623263C00000000000080808092
:1006000080000000000080E070180C1830E08000CE
:100610000010F8901030783010B8FC38100000004E
:10062000000000F8FCF800000000000000000000DE
:100630000000001C9C1C00000000F8FCF8000000FA
:100640000000001CFCF8C000000000000080E0F882
:100650007C1C000000F0FCFCFC1C1C1C1C1C1C1C5A
:100660001C000000000000C0F0F8381C1C1C1C1C02
:100670001C3CF8F0E000E0F0F0F0E0ECEEF7F37096
:1006800020007C7C7C7E007E7E7E7F7F7F000080E1
:10069000C0E07E5B4F5BFEC00000C000DCD7DEDE4A
:1006A000DED7DC00C00000000000000000000000F9
:1006B000000000000000000000000000000FBCE08F
:1006C000818181838382870C183060C000001FFE07
:1006D00090B9FFBB91983C1811133F110000000026
:1006E000000000FFFFFF000000000000000000000D
:1006F000000000FFFFFF00000000FFFFFF00000000
:100700000000000000030F7FF8E080F0FC3F0F01C5
:1007100000000000003F3F3F1C1C1C1C1C3C78F8E4
:10072000F0E08000000000C3E7FF7E3C387878707E
:1007300070F8FFDF87000F1F3F7F7F7F7F7F3F1EA7
:100740000C001F1F1F3F003F3F3F7F7F7F00307B1C
:100750007F7830202030787F3B0003000F7F0F0F21
:100760000F7F0F00030000000000000000000000E9
:100770000000000000000000183C24666341C181B5
:1007800080808080808081C14162386C4CC68181CC
:10079000808080808081C14362361C180000000088
:1007A000000000FFFFFFC0C0C0C0C0C0C0C0C0800C
:1007B0000000007FFF7F000000007FFFFFC080007F
:1007C0000000E0E0C0C0C0E0F97F1F0700000000AB
:1007D000000000000070F0E0E0C0C0C0C0E0F0F831
:1007E0007F3F0F0000000F3F7FF9E0E0C0C0C0C0B6
:1007F000C0E0F97F3F1F0000000000000000000083
:1008000000000000000000000000000000000000E8
:1008100000000000000000000000000000000000D8
:1008200000000000000000000000000000000000C8
:1008300000000000000000000403300000000E0370
:100840004C0069006C00790035003800000010038E
:100850006C0069006C00690075006D007300000099
:100860000403090409023B00020100A0FA09040084
:1008700000010301010009211101000122400007CC
:1008800005810308000A09040100010300000009B2
:100890002111010001226D000705820320000A12C8
:1008A00001100100000008D8042DEB000101020333
:1008B0000105010980A101850319012AB70015016D
:1008C00026B700950175108100C0050C0901A10132
:1008D000850419012AA002150126A00295017510B0
:1008E0008100C005010906A1018505050719E02958
:1008F000E7150025019508750181020507190029F2
:10090000EF1500250195F0750181020508190129EF
:1009100005950575019102950175039101C00501C9
:100920000906A101050719E029E715002501950829
:10093000750181029501750881010507190029FFDC
:10094000150026FF00950675088100050819012984
:1009500005950575019102950175039101C011245A
:100960001FBECFEFDAE0DEBFCDBF04B603FE27C067
:100970008091D6059091D705A091D805B091D90561
:100980008730904BA740B04BD1F41092D60510920F
:10099000D7051092D8051092D90514BE84B7877F69
:1009A00084BF0FB6F894A895809160008861809309
:1009B0006000109260000FBEE0E0F8E3099512E0DD
:1009C000A0E0B1E0E6E5F4E502C005900D92A235A5
:1009D000B107D9F725E0A2E5B2E001C01D92A63D1E
:1009E000B207E1F70E9458210C94292A0C940000C8
:1009F00080910C0390910D03A0910E03B0910F0311
:100A000084309105A105B105D9F060F40097A105E6
:100A1000B10599F082309105A105B105D9F46BE7D4
:100A200071E010C088309105A105B10581F08E30CC
:100A30009105A105B10559F00DC06FE571E002C047
:100A40006EE671E08DE593E00E94E8261CC068E840
:100A500071E0F8CFBF93AF939F938F9386E991E0B6
:100A60009F938F931F9288E18F938DE593E09F93DF
:100A70008F930E94EF268DB79EB70A960FB6F89413
:100A80009EBF0FBE8DBF8DE593E0089580E091E09D
:100A900008950F931F93CF93DF930E943A1382FD23
:100AA00003C00AEA11E002C007EA11E00E943A130B
:100AB00081FD03C0CAEAD1E002C0C7EAD1E00E94CA
:100AC0003A1380FD03C08AEA91E002C087EA91E010
:100AD0001F930F93DF93CF939F938F938DEA91E0B2
:100AE0009F938F931F9288E18F9385E793E09F9365
:100AF0008F930E94EF268DB79EB70C960FB6F89491
:100B00009EBF0FBE8DBF85E793E0DF91CF911F9110
:100B10000F9108950C94E905CF93DF93D62FC42F3E
:100B20000E944D1B882351F08D2F0E944D1B88235E
:100B300029F08C2FDF91CF910C946D1B8C2FDF91BE
:100B4000CF910C948E1B0895CF93C82F0E94490A11
:100B5000882311F08C2F01C082E0CF9108958091FD
:100B600041018F93809140018F93809153028F9325
:100B7000809152028F938FEB91E09F938F931F92FE
:100B800088E18F938FE893E09F938F930E94EF26E5
:100B90000E94490A2DB73EB7265F3F4F0FB6F89423
:100BA0003EBF0FBE2DBF882379F00E94F80460E09D
:100BB0000E94E40C0E94490560E00E94E40C60E0A1
:100BC0008FE893E00C94E40C0E94460560E00C94DE
:100BD000C80CCF93FB0189322DE59207A1F020F4D8
:100BE00088329D4549F031C08A322DE5920771F077
:100BF0008B329D45F9F029C0C281CC2339F180E0C8
:100C00000E948F061DC0C28181E002C0C28182E0C5
:100C1000CC2341F00E946D1B43E062E081E00E9422
:100C20008C050EC00E948E1B43E062E081E00E94B2
:100C30008C050CC0C28183E0CC2321F00E946D1B87
:100C4000C0E004C00E948E1B01C0C1E08C2FCF9178
:100C5000089590E090934101809340018091520269
:100C600090915302662339F001969093530280933A
:100C700052028EE406C00197909353028093520271
:100C80008BE40C94001581E0089508950C944506BA
:100C90001F93CF93DF9300D000D01F92CDB7DEB764
:100CA00049835A836B833091AB0289819A813111D8
:100CB00014C0662359F0222349F00E94641C182FA7
:100CC000682F89819A810E940B1C03C00E94371CE7
:100CD000182F69817A81812F04C00E94641C698168
:100CE0007A810F900F900F900F900F90DF91CF911E
:100CF0001F910C940A07FC01262F408151816281CB
:100D0000738184810C944806CF93DF93EC0160E0FB
:100D10000E947B06BE01DF91CF910C944606CF93D3
:100D2000DF9361E070E0EB0102C0CC0FDD1F8A951C
:100D3000E2F78C2F0E949C1DBE0180E090E0DF91C5
:100D4000CF910C94ED1A0E94891D811102C00E945E
:100D50002E1E0C94F5080C94F30808950C94AD061F
:100D600081E008950C94B006CF93C82F0E94AE0680
:100D70008C2F0E94B206CF91089508950E948B1780
:100D80000E94BD062FEF84E39CE0215080409040FC
:100D9000E1F700C000000C94C91F0F931F93CF937D
:100DA000DF93EC0161E00E947B068C01BE010E9492
:100DB0008A05882349F1BE01C8010E94DD0E8823FF
:100DC00019F1BE01C8010E942F0F8823E9F0BE016E
:100DD000C8010E945A108823B9F08A81882369F0DB
:100DE00001158CE5180731F00E3D1C4531F40E94C9
:100DF0002E1E0AC00E94BE0607C0CE01DF91CF9111
:100E00001F910F910C94430680E0DF91CF911F91C9
:100E10000F9108952CE3829FC0011124FC0126E06C
:100E2000729FE00DF11D1124E60FF11DEE0FFF1F63
:100E3000EC50FF4F859194910895CF93DF930E94DA
:100E40000A070E940E08EC0181159245F0F5C115C4
:100E500081E5D80708F0A9C0C83ED10528F5C03EF5
:100E6000D10508F0D7C0C83AD10578F4C53AD10504
:100E700008F074C0C130D10509F4CCC008F4C8C072
:100E8000C430D10508F0C6C0C3C0CF3BD10508F0BF
:100E9000BFC0C85AD0E0CC0FDD1FC953DE4F099048
:100EA000D881C02DD464B6C0C11590E5D90708F02B
:100EB00060C0C11520E4D20708F058C0CE019A9551
:100EC00081159F4108F4A6C0A3C0C11586E5D807C7
:100ED00018F5C11595E5D90708F080C0C11524E5BE
:100EE000D20708F076C09E01237033278C2F869599
:100EF0008695C115D34508F05DC0C1E0D0E002C0C1
:100F0000CC0FDD1F2A95E2F720E2829FC001112459
:100F1000C82BD92BDC687EC0C1152AE5D20778F42E
:100F2000C11589E5D80708F063C0C11598E5D90750
:100F300008F46EC0DC2FCC27C06FD06A6BC0CE0126
:100F400090568115904208F063C08D2F8F710E94DA
:100F5000A208DD27D0628F71D82B5CC0C55AD0E0C3
:100F6000CB50DE4FC881D0E0D06454C0DF70D06A6F
:100F700051C0CE0174E0969587957A95E1F783701C
:100F80009C2F937021E030E002C0220F331F9A950E
:100F9000E2F73C68382BCF70C695C69580E2C89FB3
:100FA000E0011124C22BD32B35C0DC2FCC27C16F1D
:100FB000D06A30C0C1E0D0E002C0CC0FDD1F2A955E
:100FC000E2F720E2829FC0011124C82BD92BDA68F6
:100FD00021C0DC2FCC27C46FD06A1CC08C2F0E948C
:100FE000A2088F71C82FD0E0DC2FCC27D06212C0AE
:100FF0008C2F8F700E94A20894E0D695C7959A9581
:10100000E1F7CF70D0E0DC2FCC27D069C82B02C02D
:10101000C0E0D0E0CE01DF91CF91089582389105F4
:1010200069F1B0F48133910509F46DC048F4893257
:10103000910509F463C08A32910509F469C00895E5
:101040008533910509F455C089339105B9F00895A8
:10105000833E910569F138F4803E9105B1F0823EFE
:10106000910509F10895863E9105A9F1873E910504
:10107000B9F1843E910509F064C023C02091C705F1
:1010800020FD4FC021FD4DC008958091C70580FD12
:1010900044C08091C80580FF44C08091C70584FD8D
:1010A00042C083EE4DC08091C70582FF38C0F5CFA6
:1010B0008091C70582FD33C08091C80580FD31C095
:1010C000ECCF8091C80581FF32C08091C70584FDB7
:1010D0002AC087EE35C08091C70583FF26C0F5CFB3
:1010E0008091C70583FD21C08091C80581FD1FC087
:1010F000ECCF8091C70585FD1CC01DC08091C70540
:1011000085FD19C016C08091C70586FD16C017C0A1
:101110008091C70586FD13C010C089E311C082EE1F
:101120000FC080EE0DC080E00BC086EE09C084EEDB
:1011300007C089E205C085E303C08AE201C081E3FC
:1011400090E008959091C70592FF0DC0282F287157
:10115000283019F4877F846006C0282F247124303A
:1011600011F48B7F886093FF0DC0282F28712831E0
:1011700019F4877E846106C0282F2471243111F46C
:101180008B7E88612091C80520FF0DC0382F3871F3
:10119000383019F4877F816006C0382F31713130C3
:1011A00011F48E7F886021FF0DC0282F287128310F
:1011B00019F4877E816106C0282F2171213111F435
:1011C0008E7E886194FD877E0895E82FF0E0EF54CD
:1011D000FC4F80810895089580EA8A95F1F708957B
:1011E00008950C94F0080C94F1080C94A30508954C
:1011F000CF93DF930E946B0A80914201809142015C
:10120000811102C095E001C090E09093BC0385E09D
:10121000891B8093BB03AEEFB1E043E052E061E095
:1012200070E08D91E82FE295EF70F0E021A18F70D2
:10123000EB0102C0CC0FDD1F8A95E2F7CE019C2F97
:101240009095922391A392A1892B82A34A175B07C1
:1012500041F7A8EFB1E04EEF51E061E070E08D9111
:10126000E82FE295EF70F0E021A18F70EB0102C052
:10127000CC0FDD1F8A95E2F7CE019C2F909592232B
:1012800091A392A1892B82A34A175B0741F7E7EA52
:10129000F3E0A1EBB3E081EB93E011921D928E1786
:1012A0009F07D9F785E00E94120A0E94A306DF91EA
:1012B000CF910C94750A0E94490A882309F1809104
:1012C000BB0390E08F549C4F0E94880A811114C088
:1012D000809154028F5F80935402863078F0E091C1
:1012E000BB03F0E0EF54FC4F80E090E011920196D8
:1012F00085309105D9F702C0109254020C94AB06C8
:101300008091BC0390E08F549C4F0E94A90A0C94DA
:10131000F7086F927F928F929F92AF92BF92CF9277
:10132000DF92EF92FF920F931F93CF93DF938EEF95
:10133000882E81E0982E07EA13E09CEAA92E93E01C
:10134000B92E712CCC24C394D12CF40181914F017E
:10135000C82FC295CF70D0E099A18F70760101C0DF
:10136000EE0C8A95EAF7892F8E2989A38AA16E2C23
:10137000609486218AA30E94EC08E8EFF1E040E047
:1013800050E020E03191A32FA295AF70B0E090968D
:101390008C9190E03F7002C0959587953A95E2F761
:1013A00080FD07C08C2D042E01C0880F0A94EAF737
:1013B00001C080E0282B4F5F5F4F4630510511F789
:1013C00089A1682269A28AA1E82AEAA2F80180819B
:1013D000281719F0208381E001C080E0782A0F5F90
:1013E0001F4FA016B10609F0B0CF6091BC0370E0AA
:1013F0006F547C4F272D45E087EA93E00E94130A43
:101400000E945B09872DDF91CF911F910F91FF9073
:10141000EF90DF90CF90BF90AF909F908F907F9094
:101420006F9008950895FF920F931F93CF93DF93CA
:101430008C01F62ED72FC42F222349F081E0809310
:1014400057020E947C1F9093560280935502809110
:1014500057028823C1F080915502909156020E9454
:10146000941F069780F0EF2DFD2FD8014C2F50E0F0
:10147000CD01801B910B841795071CF48D918193EE
:10148000F7CF10925702DF91CF911F910F91FF90EC
:10149000089580915802811112C08091D800806116
:1014A0008093D8008AE18A95F1F700C08091D90035
:1014B00080FD02C082E001C081E08093580281E09B
:1014C00090915802913009F080E008950E94490AF5
:1014D00091E0892708950E94660A809342010E9444
:1014E000490A81110C947C0A08950E94490A8111CD
:1014F00002C00C94820A089561E070E083E491E0F8
:101500000C94D01161E070E083E491E00C94D91167
:10151000CF93DF93D82FC92F80E090E00E94B212C2
:10152000892B99F4ED2FFC2F80E090E0DC01A65A86
:10153000BD4F2C912193019685309105B9F78FE528
:1015400092E00E94320B81E001C080E0DF91CF91F8
:10155000089520E030E0FC014191CF01F901E65A05
:10156000FD4F40832F5F3F4F25303105A1F78FE5B9
:1015700092E00C94290B0C94290684988C9A8598F7
:101580008D9A8FB1829581707D9902C090E001C0E3
:1015900092E0892B809365029091420181E0982727
:1015A00090936102891B809360020895CF93E0912C
:1015B0006502EE0FEE0FE09365024FB144FB882702
:1015C00080F990E04FB145FB222720F930E045FF3C
:1015D00002C022E030E0822B932B8E2B8093650299
:1015E000C09161028F70E82FF0E0E85FFD4F9081BD
:1015F00080916402890F8093640284306CF0EC2F38
:101600000C2E000CFF0BEE59FD4F80818F5F808305
:1016100060E08C2F0E94BB0A809164028D3F6CF4C5
:10162000EC2F0C2E000CFF0BEE59FD4F80818150EA
:10163000808361E08C2F0E94BB0A809164028378D2
:1016400087FF03C081508C6F8F5F80936402CF91BE
:101650000895E0916102F0E0EE59FD4F2081FC0118
:1016600020830895FF920F931F93CF93DF93D09120
:1016700060020D2F10E00E591D4FFC01C081F801D2
:101680008081C81BFC2E1F1454F4FA94F801808149
:101690008F5F808360E08D2F0E94BB0AF4CF8C2F78
:1016A000C7FD80E0C81BCC2351F0CF5FF8018081DB
:1016B0008150808361E08D2F0E94BB0AF4CFDF91BF
:1016C000CF911F910F91FF900895EF92FF920F938A
:1016D0001F93CF93DF93EC017B0164E670E088E712
:1016E0000E9491108C01EC0EFD1ECE15DF0561F0FD
:1016F00017FD0AC0FE01849164E670E00E94E810C4
:101700008C012196892B89F30E946C11C801DF910D
:10171000CF911F910F91FF90EF900895EDEBF3E0C3
:1017200080E092E0DF019C011D9221503040E1F702
:10173000F093C205E093C1058FEF9FEF9093920263
:101740008093910208950E94A40580938D0280FDEC
:1017500002C080E801C080E280938C020E948B105E
:101760006DE070E08BEE92E00E94650B892B11F02A
:1017700080E0089580918D0263E070E081FD03C0F8
:1017800088EE92E002C085EE92E00E94650B892B04
:1017900079F76DE070E088ED92E00E94650B892B8F
:1017A00039F70E94881FDC01CB01805A9541AF4F69
:1017B000BF4F8093BD059093BE05A093BF05B09326
:1017C000C0050E948E0B81E08093900280938F026F
:1017D00010928E02089520918C0236E0839FC00102
:1017E0001124629F800D911D1124811522E0920722
:1017F00014F080E090E083549C4F9093C205809356
:10180000C10508952091C1053091C205275B334081
:1018100040918C02642F70E0C9010E94B826481BD9
:10182000463010F4240F311D211582E0380710F0E6
:1018300020E030E023543C4F3093C2052093C10593
:101840000895CF93DF938A3011F481E003C08D3087
:1018500029F480E0DF91CF910C94970CC62F682F6C
:101860008091C1059091C20526E0FC01A6E6B2E098
:1018700001900D922A95E1F7603E30F026E0FC01E0
:1018800011922A95E9F70AC0F6E06F9FB001112482
:1018900068507D4F46E050E00E94D226C11135C00D
:1018A000C091C105D091C20546E050E0BE0186E678
:1018B00092E00E94DB26892BB1F1CD5BD3409E01E3
:1018C00085E0369527958A95E1F781E090E0AC01B7
:1018D00002C0440F551F2A95E2F7209191023091E2
:1018E0009202242B352B259645E0D695C7954A952F
:1018F000E1F702C0880F991FCA95E2F7822B932B5C
:1019000090939202809391020EC0E091C105F091F4
:10191000C2059F012A5F3F4F2E173F0709F28081C2
:1019200080958193F9CFDF91CF910C94020CCF93E6
:10193000E82F2091C1053091C2052D5B33404091C5
:101940008C02642F70E0C9010E94B826481B842FC6
:10195000EE2359F066E00E94AC26C82FC150B0F0CB
:1019600060E080E20E94210CF9CFA901480F511DCF
:101970004115524018F080E020E030E0280F311D82
:1019800023543C4F3093C2052093C105CF91089555
:10199000FF920F931F93CF93DF93EC01F62EFC0180
:1019A00001900020E9F78F0101501109C017D107FC
:1019B00028F46F2D89910E94210CF8CFDF91CF91EF
:1019C0001F910F91FF9008950E94C80C81E00C9424
:1019D000970C0E94881FDC01CB01805A9541AF4FC4
:1019E000BF4F8093BD059093BE05A093BF05B093F4
:1019F000C00580918F0281110BC062E070E086ED1E
:101A000092E00E94650B892B19F481E080938F028C
:101A100080918F0208956F927F928F929F92AF92E2
:101A2000BF92CF92DF92EF92FF920F931F93CF93CB
:101A3000DF9320919102309192022115310509F432
:101A4000D4C080918E028111D0C061E070E0082F77
:101A500010E03B01082E02C0660C771C0A94E2F7E6
:101A6000A90146215721452B11F48F5FF0CF9091AA
:101A70008D02980165E0220F331F6A95E1F790FD12
:101A800012C08295880F807680934D01220F232FFC
:101A9000221F330B319520935001815E80934E01BC
:101AA0001092510112C045E0369527954A95E1F70D
:101AB000220F220F220F20934D0110925001295F17
:101AC00020934E0183E08093510124E630E047E00B
:101AD00050E06BE471E088E70E941811892B09F04F
:101AE00084C080918D0280FD23C0A80195E0440F41
:101AF000551F9A95E1F743545C4F04E610E020E24D
:101B000030E060E488E70E943F11892B09F06DC046
:101B10000E94E90CE301C095D095809191029091CB
:101B20009202C823D923D0939202C09391025DC040
:101B300080E2ECE6F2E0DF011D928A95E9F785E0AC
:101B4000000F111F8A95E1F7ACE1B2E048E152E0E5
:101B5000992493942D91EA018991AE01B801680FFF
:101B6000711D63547C4F30E024593D4FF90197E0DB
:101B70007F01E21AF30AA92C01C0AA0CEA94EAF741
:101B80007B01B12CE70189917E018A21892E8B1876
:101B9000D82DD770CD2E0D2E000CDD08C82F01C01A
:101BA000CC0FDA95EAF7D194C194D108D7E0CD22D1
:101BB000DD2401C08695CA94EAF78C2BD0808D294C
:101BC0008083B39488E0B812DDCF915031969F3F67
:101BD00079F6C2E0A032BC0709F0BCCF04E610E001
:101BE00020E230E04CE652E08CCFDF91CF911F91A4
:101BF0000F91FF90EF90DF90CF90BF90AF909F90AC
:101C00008F907F906F90089580918F02882369F064
:101C100062E070E084ED92E00E94650B892B19F080
:101C200080918F02089510928F0290918F0281E02F
:101C3000892708950F931F9380919002882311F1B3
:101C400060E080E00E94EB0B0E94AF050E940B0D4C
:101C500080918F028823B1F00E94881F0091BD05FA
:101C60001091BE052091BF053091C005DC01CB016C
:101C7000801B910BA20BB30BB7FD04C01F910F91FA
:101C80000C94040E1F910F910895AF92BF92CF92C2
:101C9000DF92EF92FF920F931F93CF93DF937C011C
:101CA0005B01C42FD22FFC0182818823F9F040937D
:101CB00095020E947C1F909394028093930280E28D
:101CC0008C0F883008F06EC0C77081E001C0880FAB
:101CD000CA95EAF7DF91CF911F910F91FF90EF9096
:101CE000DF90CF90BF90AF900C9413158091950228
:101CF000481335C080919302909194020E94941FE2
:101D00006C01B701C5010E942A1AC816D90638F518
:101D100010E21D0FCD17B9F080E28C0F883040F42F
:101D2000C77081E001C0880FCA95EAF70E941A15B2
:101D3000183058F581E09D2F977001C0880F9A9553
:101D4000EAF70E941315802F0E940015183050F5F5
:101D5000D77081E001C0880FDA95EAF70AC080E207
:101D60008C0F8830F8F4C77081E001C0880FCA95E5
:101D7000EAF7DF91CF911F910F91FF90EF90DF90E5
:101D8000CF90BF90AF900C941A15802FDF91CF9118
:101D90001F910F91FF90EF90DF90CF90BF90AF9089
:101DA0000C940015DF91CF911F910F91FF90EF9050
:101DB000DF90CF90BF90AF9008950F939C01CB011F
:101DC000233F4CE5340731F188F4283DFCE53F071B
:101DD000D9F0293D4CE5340779F1273D3C45A9F57B
:101DE00006E221EE41EE67ED7CE52BC0253FFCE5E8
:101DF0003F07E1F0A8F0263F3C4539F507E225EE24
:101E000046EE66EF7CE51DC007E225EE45EE68ED87
:101E10007CE517C006E221EE40EE63EF7CE511C0E1
:101E200007E225EE44EE64EF7CE50BC006E221EE0E
:101E300042EE65EF7CE505C008E221E045EE69ED84
:101E40007CE50E94450E80E008C0FC018281882369
:101E500019F01092950201C081E00F910895CF937F
:101E6000DF93EC01FB018281882309F41FC1C2309A
:101E7000FCE5DF0708F41BC1C6319CE5D90738F043
:101E80009E012A5F3C452930310508F010C10E94AF
:101E9000A11D9093C8058093C705C031ECE5DE070E
:101EA00009F4C3C008F041C0C8308CE5D80709F474
:101EB0009AC0F0F4C430ECE5DE0709F487C068F49A
:101EC000C2308CE5D80709F477C0C330DC4509F08F
:101ED000E3C08091C705826076C0C630ECE5DE07BE
:101EE00009F46EC008F07BC08091C70588606BC0A4
:101EF000CC308CE5D80709F485C068F4CA30ECE52D
:101F0000DE0709F474C008F079C00E948B17809135
:101F1000C705806858C0CE308CE5D80709F476C074
:101F200008F07FC08091C7058BC0CB3FECE5DE0792
:101F300009F44FC018F5C3318CE5D80709F47DC00A
:101F400078F4C131ECE5DE0709F473C0C231DC4539
:101F500009F0A2C00E948B178091C7058F7733C00C
:101F6000C5318CE5D80709F472C008F486C0CA3FB1
:101F7000DC4509F091C08091C8053EC0CF3FFCE52B
:101F8000DF0709F45FC058F4CD3F9CE5D90709F499
:101F900044C008F43FC08091C80582602DC0C130A4
:101FA000FDE5DF0709F475C008F45DC0C230DD450A
:101FB00009F072C080E06EC08091C705816003C0E7
:101FC0008091C70580618093C70566C08091C70571
:101FD00011C08091C80582608093C8055DC0809162
:101FE000C7058062F0CF8091C7058064ECCF8091F7
:101FF000C70588608460E7CF8160EECF8091C70518
:102000008E7FE1CF8091C7058D7FDDCF8091C705A1
:10201000877FD9CF8091C80518C08091C8058D7F72
:10202000DBCF8091C7058F7ECECF8091C7058F7D96
:10203000CACF8091C7058F7BC6CF8091C705877FA8
:102040008B7FC1CF8091C8058D7F8E7FC5CF80915A
:10205000C70582FB222720F991E0922790FB82F9A5
:1020600090FB83F9B0CF8091C805982F909591701F
:102070008E7F892B90FB81F9AFCF0E948B178091C7
:10208000C70587FB222720F991E0922790FB87F96B
:102090009ACF81E00E94301E8091C7059091C805BB
:1020A0000E94B21D0E948B1780E001C081E0DF9189
:1020B000CF910895CF93DF9386319C4541F5EB0195
:1020C0000E94E51C982F8A81209152013091530182
:1020D000882379F09A7A81E009F480E0809396026F
:1020E000911102C069E201C065E3C9010E94CB1EE3
:1020F0000AC080919602811102C069E201C065E3C5
:10210000C9010E94D61E0E94261D80E001C081E008
:10211000DF91CF9108951092B9008CE08093B800C0
:102120000895EF92FF920F931F93CF93DF93182F91
:10213000EB011092BC0084EA8093BC000E947C1FDB
:102140007C018091BC0087FD0EC0CF3F8FEFD80788
:10215000C1F30E947C1F8E199F098C179D0788F37D
:102160008EEF9FEF2EC08091B900887F883041F0BC
:102170008091B900887F803119F08FEF9FEF21C0E7
:102180001093BB0084E88093BC000E947C1F8C01EC
:102190008091BC0087FD0CC0CF3F8FEFD807C1F303
:1021A0000E947C1F801B910B8C179D0788F3D8CF52
:1021B0008091B900887F883111F08034F1F680E099
:1021C00090E0DF91CF911F910F91FF90EF900895D4
:1021D0000F931F93CF93DF93EB018093BB0084E8B1
:1021E0008093BC000E947C1F8C018091BC0087FD05
:1021F0000EC0CF3F8FEFD807C1F30E947C1F801B1A
:10220000910B8C179D0788F38EEF9FEF0CC02091E8
:10221000B900287F81E090E0283211F480E090E05E
:10222000919581959109DF91CF911F910F9108951B
:10223000CF92DF92EF92FF920F931F93CF93DF9392
:102240006B018A017901B9010E949110E6010C0D20
:102250001D1DC017D10761F424E92093BC00DF9154
:10226000CF911F910F91FF90EF90DF90CF90089545
:1022700097FDF2CFB70189910E94E810EACFCF9283
:10228000DF92EF92FF920F931F93CF93DF93C62FAE
:102290006A017901B8010E94911097FD11C0B8013F
:1022A0008C2F0E94E810E601EC0CFD1CCE15DF051A
:1022B00039F097FD05C0B80189910E94E810F6CF6A
:1022C00024E92093BC00DF91CF911F910F91FF90E3
:1022D000EF90DF90CF90089584E98093BC0008953B
:1022E0008EE14A9B02C08150E1F74A9BFECF0895E0
:1022F0005A9880E28A95F1F75A9A0895FC012AE0EB
:102300002A95F1F790E020E080E031E0261779F09F
:1023100040E14A95F1F7880F4A9B02C081609327FC
:1023200000C0000040E14A95F1F72F5FEFCF20E1B8
:102330002A95F1F729B100C0000030E13A95F1F794
:1023400022FB222720F992272081920F9083089563
:10235000EF92FF920F931F93CF93DF931F92CDB70E
:10236000DEB719828C017C01E60EF11C0E151F05EB
:1023700059F00E94701168E0CE0101960E947E1112
:10238000F80181938F01F2CF81E09981911180E072
:102390000F90DF91CF911F910F91FF90EF900895D3
:1023A000909399028093980260939702529A5A9A56
:1023B000089590939902809398026093970252989F
:1023C0005A9AEA9AE9E6F0E080818F7C808308954A
:1023D000615091E001C0990F6A95EAF720E031E081
:1023E000992361F0492F482319F05A9A232701C0F5
:1023F0005A9840E24A95F1F79695F2CF222311F0D0
:102400005A9A01C05A9880E28A95F1F75A9808952D
:10241000FF920F931F93CF93DF93EC018C01060F74
:10242000111DC017D10741F0F9900E94781168E0A2
:102430008F2D0E94E811F5CFDF91CF911F910F9161
:10244000FF9008951F920F920FB60F9211240F93D1
:102450001F932F933F934F935F936F937F938F932C
:102460009F93AF93BF93EF93FF93CF93DF931F920D
:10247000CDB7DEB719820E94701167E0CE010196D8
:102480000E947E11382F369536953695932F969566
:102490009570232F2570920F292F2370969596956E
:1024A0008770920F891348C08981811145C080913E
:1024B0009702831708F440C080E18A95F1F75A9A91
:1024C000529AA2E0AA95F1F700C0009198021091EB
:1024D0009902B8E03B9F000D111D11245A98F80194
:1024E0006581662321F0868197810E9408120E94EF
:1024F0007811F0E1FA95F1F75A9852985A9A80E1DA
:102500008A95F1F7D80112966C911297662369F0BB
:1025100013968D919C9114970E94A811D801ED916A
:10252000FC91811105C082E004C0D801ED91FC91BD
:1025300088E080830E9470110F90DF91CF91FF910E
:10254000EF91BF91AF919F918F917F916F915F912B
:102550004F913F912F911F910F910F900FBE0F90B0
:102560001F9018950F931F93CF93DF93209197029D
:1025700030E0281739070CF471C09C0193E0220F5A
:10258000331F9A95E1F7C0919802D0919902C20F3A
:10259000D31FF894529A5A9845E04A95F1F70000F3
:1025A000982F969595708570890F982F93708695C2
:1025B0008695890F8901082B0E94781184E08A95FD
:1025C000F1F700C067E0802F0E94E81140E14A95D2
:1025D000F1F752985A9A4A9902C000C0FCCF87E09E
:1025E00090E04A9B0EC0019751F4529A5A9AE881A2
:1025F000F98181E08083789481E090E031C000C06F
:10260000F0CF6D81662381F08E819F810E94A81199
:1026100081110AC0529A5A9AE881F98182E0808336
:10262000789482E090E01CC00E94701180E28A954C
:10263000F1F75A98529A40E14A95F1F76A81662378
:1026400021F08B819C810E9408120E947811E88100
:10265000F9811082789480E090E002C084E090E0FC
:10266000DF91CF911F910F91089590939F028093D6
:102670009E020895E0919E02F0919F02309721F012
:102680000190F081E02D099480E00895E0919E0290
:10269000F0919F02309799F020915E01222359F02A
:1026A0002091C70527FF07C0DC012C9111962C93C0
:1026B000119725E02C930280F381E02D0994089571
:1026C00020919C0230919D022817390771F0909358
:1026D0009D0280939C02E0919E02F0919F023097B0
:1026E00021F00680F781E02D0994089520919A0247
:1026F00030919B022817390771F090939B028093C9
:102700009A02E0919E02F0919F02309721F000849E
:10271000F185E02D0994089585B7806885BF85B758
:10272000806885BF089508950C9493130C949413B6
:102730000C9493130C9493130E948C130E9498137F
:102740000C9496130C94490A0E94731F0E94F80877
:1027500080E00E94A30B0E94DA1F0E94BD0A0C9425
:102760009A139F92AF92BF92CF92DF92EF92FF9215
:102770000F931F93CF93DF93CDB7DEB72A970FB692
:10278000F894DEBF0FBECDBF0E948909C82E0E94FB
:10279000A213811111C08FEF89838A831B820E944B
:1027A0007C1F8160782F9D838C8349815A816B8146
:1027B0008D810E94521440C081EAA82E82E0B82E7A
:1027C00000E010E0902E802F0E94E508E82EF50131
:1027D000D1905F01D82631F40F5F1F4F0A301105E9
:1027E00089F7D9CF8091390381FD0E94EB0880E001
:1027F000FF24F3949D2D9F21D1F08E839F82EF20A3
:1028000081E009F480E088870E947C1F8160782F36
:102810009A8789874E815F8168858A850E945214D4
:10282000F801EF55FD4F8081F826F08205C08F5FDB
:10283000FF0C8630F9F6D0CF0E94D60A0E941A0EFD
:10284000C1100E94E90C0E943A139091A0028917CE
:10285000B9F00E943A138093A0022A960FB6F8941A
:10286000DEBF0FBECDBFDF91CF911F910F91FF90C3
:10287000EF90DF90CF90BF90AF909F900C94B406F4
:102880002A960FB6F894DEBF0FBECDBFDF91CF9171
:102890001F910F91FF90EF90DF90CF90BF90AF907E
:1028A0009F900895CF93DF93CDB7DEB72B970FB6E8
:1028B000F894DEBF0FBECDBF4F83588769877A87F4
:1028C0008B87DE01119686E0FD0111928A95E9F76A
:1028D00085E0FE01379601900D928A95E1F74981D6
:1028E0005A816B817C818D819E810E942D1A2B964D
:1028F0000FB6F894DEBF0FBECDBFDF91CF91089524
:10290000FC01808191810E94A61C0895CF938823A9
:1029100009F448C0C82F8CEF8C0F813AD0F46C2F8B
:1029200080915201909153010E944B1E882349F0DF
:102930006C2F80915201909153010E94D61E0E94EB
:10294000261D6C2F80915201909153010E94CB1E45
:102950000CC080E28C0F883058F4C77081E001C051
:10296000880FCA95EAF70E94E81CCF910C94261DA7
:10297000EBE5EC0FE33040F4F0E0E25BFD4F8081EB
:1029800090E0CF910C946013C85AC73158F4EC2FE3
:10299000F0E0EE0FFF1FE05EFD4F80819181CF914F
:1029A0000C947613CF910895882349F1682F8CEF0A
:1029B000860F813A38F480915201909153010E9420
:1029C000D61E0CC080E2860F883050F4677081E01C
:1029D00001C0880F6A95EAF70E94EE1C0C94261D30
:1029E0008BE5860F833020F480E090E00C94601338
:1029F000685A673120F480E090E00C9476130895D3
:102A0000CF93C82F0E948614C93349F42FEF87EE65
:102A100093E0215080409040E1F700C000008C2FEF
:102A2000CF910C94D414882321F00E94E81C0C94BC
:102A3000261D0895882321F00E94EE1C0C94261D6B
:102A40000895CF92DF92EF92FF920F931F93CF934F
:102A5000DF937C01D62FC72FFC01058102950F70F3
:102A6000128111110E94051D0E94DE1C882399F01D
:102A7000112389F08C2F807F803421F080E28D0F2C
:102A8000883048F082E00E94701D0E94DE1C91E0B8
:102A9000D82ED92601C0D12CCC2EC2948FE0C822CA
:102AA0008C2D90E08C30910508F0ABC1FC01EA5A06
:102AB000FF4F0C94CC268C2F807FCF70882311F091
:102AC000C295C07F112399F0CC2309F486C180E21E
:102AD0008D0F883010F0D11104C08C2F0E94E81C9B
:102AE00003C08C2F0E94F81C0E94261D76C18D2FDA
:102AF0000E94D414CC2309F484C180E28D0F883065
:102B000010F0D11104C08C2F0E94EE1C03C08C2F3A
:102B10000E94FE1C0E94261D74C18C2F807FCF70E6
:102B2000803211F0C295C07FDD2319F0D130C9F099
:102B300022C0112371F0002341F0013031F40E94D2
:102B40000B1D8C2B0E94131D5CC10E940B1D8C2B36
:102B50001DC0002319F0013009F453C10E941C1D4F
:102B600025C0112321F0063008F04BC10EC00530FE
:102B700008F047C11BC0112361F0002331F0F701B9
:102B8000858180FF2AC18F7085838C2F0E94131549
:102B900038C1002359F0D93309F030C1FFEF07EEF7
:102BA00013E0F15000401040E1F726C18C2F0E9445
:102BB0001A1527C18C2F86958695837019F0813060
:102BC00061F01FC1112321F08D2F9C2F937002C043
:102BD00080E090E00E9460131CC1112321F08D2F32
:102BE0009C2F937002C080E090E00E94761311C188
:102BF0008C2F837009F047C0111107C12D2F22952A
:102C000026952770220F220F6D2F6F70862F90E070
:102C1000A0E0B0E0022E04C0880F991FAA1FBB1FBE
:102C20000A94D2F7D4FF10C04FE050E060E070E0AB
:102C300004C0440F551F661F771F2A95D2F7409591
:102C400050956095709503C040E050E0BA01C6957C
:102C5000C695C3708A019B01082B192B2A2B3B2B8D
:102C6000C901B801C23049F058F4C13019F00E94CE
:102C7000011BCBC00E94EF1AC8C00E94131BC5C025
:102C80000E94ED1AC2C0112319F08C2F817001C06F
:102C90008695882309F4B9C02D2F22952695277093
:102CA000220F220F6D2F6F70862F90E0A0E0B0E012
:102CB000022E04C0880F991FAA1FBB1F0A94D2F7C7
:102CC000D4FF10C04FE050E060E070E004C0440F5B
:102CD000551F661F771F2A95D2F74095509560952E
:102CE000709503C040E050E0BA01C695C695C37028
:102CF0008A019B01082B192B2A2B3B2BC901B801F8
:102D0000C23049F058F4C13019F00E94E61B7DC072
:102D10000E94D41B7AC00E94F81B77C00E94271B18
:102D200074C0CF70112339F08C2F0E946D1B8D2F32
:102D30000E9413156AC08D2F0E941A158C2F0E94B5
:102D40008E1B63C0D23F01F128F4D03F41F0D13F48
:102D5000A1F03FC0D33FF9F0D43F39F13AC011237D
:102D600041F0053008F04DC08C2F8F710E94B31BCD
:102D700048C0063008F045C0F7CF112339F08C2F3A
:102D80008F710E946D1B3DC01123C9F38C2F8F7171
:102D90000E948E1B36C0112329F08C2F8F710E9448
:102DA000581B2FC00E94331B2CC0112349F0CF7138
:102DB0008C2F0E946D1B63E08C2F0E945B1D21C035
:102DC00081E00E94701D0230E0F082E00E94701DE0
:102DD00018C0112331F0002391F28D2F0E94861428
:102DE00010C0002399F2D93349F41FEF27EE33E0E6
:102DF000115020403040E1F700C000008D2F0E94AC
:102E0000D41488EF8C0D843020F40E943A130E9471
:102E1000B406DD20C9F00E94DA1C80FD15C0F70160
:102E200012820E94D41C0E946D1BC7010E9445178C
:102E30000E94D41CDF91CF911F910F91FF90EF90D2
:102E4000DF90CF900C948E1BDF91CF911F910F914B
:102E5000FF90EF90DF90CF9008950F931F93CF9343
:102E6000DF93EC01688179818A810E94B11C8C0119
:102E70000E940A1C0E94DB1AB801CE010E94211593
:102E8000DF91CF911F910F910895CF93DF93EC01C4
:102E9000988189812B813C81232B31F08F3F31F444
:102EA00081E09F3F19F403C081E001C080E080FD14
:102EB00019C0CE010E94CD0681110CC00E94DE1CFB
:102EC000882381F08A81882369F082E0DF91CF91A5
:102ED0000C94701DCE010E942D17CE01DF91CF9171
:102EE0000C948406DF91CF9108950E94051D0E94E5
:102EF000081D0E94261D80E090E00E94601380E083
:102F000090E00C94761380915201909153010E94AD
:102F1000E11E0C9475170E94F51C0C948317E92F81
:102F2000E295EF704E2F50E0FA013297EE30F10546
:102F3000B0F4EE59FF4F0C94CC26803F91F018F47A
:102F4000883E68F40EC0843F51F40BC0883E48F0C0
:102F5000813F29F406C093FB882780F9089580E01B
:102F6000089581E008950E94A61C0E948F1708957D
:102F7000CF93DF9300D000D01F92CDB7DEB70F9074
:102F80000F900F900F900F90DF91CF910895CF93F6
:102F9000DF9300D000D000D0CDB7DEB726960FB6B5
:102FA000F894DEBF0FBECDBFDF91CF9108951F9380
:102FB000CF93DF93C091AC0216E08091AD02C817A9
:102FC00099F0D0E01C9FF0011D9FF00D1124E255F7
:102FD000FD4F4081518162817381848195810E947E
:102FE000C7172196C770E9CFDF91CF911F91089540
:102FF0004091DE025091DF026091E0027091E102A7
:103000008091E2029091E3020C94C7170F931F93F3
:10301000CF93DF938091E30282958F7009F05DC0BA
:103020008091E002882309F458C08091AC0210918D
:10303000AD026091DE027091DF02C091E102D09199
:10304000E20291E06F3F09F090E0292F06E081173E
:1030500009F443C0209721F07F3F21F030E003C006
:1030600031E001C0322F90E030FD34C0089FF00104
:10307000099FF00D1124DF01A255BD4F11963C911F
:103080001197371327C03C91361324C012963C91F8
:10309000129731111FC013964D915C9114974C1BE0
:1030A0005D0B483C5105B0F48091E3028F70806164
:1030B0008093E302ED54FD4F80818F7080618083A7
:1030C0008EED92E00E944517DF91CF911F910F91F5
:1030D0000C94D71701968770BACFDF91CF911F91CB
:1030E0000F9108959F92AF92BF92CF92DF92EF928D
:1030F000FF920F931F93CF93DF93CDB7DEB7619706
:103100000FB6F894DEBF0FBECDBF8C0185E0F8018D
:10311000DE011D9601900D928A95E1F7F80140813C
:103120005181E2809091DE026091DF022091E10204
:103130003091E2022115310531F06F3F31F481E029
:103140009F3F19F403C081E001C080E0F82FF170C7
:103150009F2E80FD2CC1F801A380B4808EEDC82E77
:1031600082E0D82EF090E002F501E21BF30BFF2085
:1031700009F4EBC08091E302E83CF10508F0A7C038
:10318000282F207F09F052C0561313C0491311C0D5
:10319000FE2CE1100EC08F7080618093E3020E94CC
:1031A000F817C6010E9445178091E302F801858354
:1031B0003EC1AB2831F05F3F31F481E04F3F19F45D
:1031C00003C081E001C080E080FD03C081E08E2566
:1031D00002C080E090E0F82FF170FF2E80FF1CC04D
:1031E0008091AC022091AD0236E0821709F4FDC057
:1031F00090E0389FF001399FF00D1124E255FD4F0A
:103200006181561306C06081461303C06281E612D5
:1032100003C001968770E9CFFE2CEE2009F407C1A8
:103220008091E30281608093E30266C0561312C06E
:10323000491310C0E1100EC0F8018583C8010E9437
:10324000451786E0F801AEEDB2E001900D928A9547
:10325000E1F7C8C04D875E878D859E850E94B317B4
:10326000882379F1EE2069F12091E302822F829583
:103270008F7090E0029774F08091DE029091DF02EF
:1032800098878F831986BB86AA862C87CE010796DE
:103290000E94451786E0F801AEEDB2E001900D9274
:1032A0008A95E1F70E9406180E94F8170DC056177C
:1032B00029F14D875E878D859E850E94B317811108
:1032C0002CC0C8010E944517FF24F394B0C0282FDA
:1032D000207F69F77A2DB98AA88A6E2D89890E9484
:1032E000B8178EED92E00E94451786E0F601119224
:1032F0008A95E9F70E94F817F12C99C04913D9CFA4
:10330000E110D7CFF8018583C8010E94451786E0F8
:10331000F60111928A95E9F78AC0EE2091F2209188
:10332000E302822F82958F7090E002970CF4B2CF67
:103330008091DE029091DF029A8389831B82BD8295
:10334000AC822E83CE010196A3CFE83CF10510F5A7
:10335000FE2CEE2009F4B5CF56130BC0491309C05B
:1033600086E0F801AEEDB2E001900D928A95E1F7AA
:103370005EC04D875E878D859E850E94B317811143
:1033800089CF8091E30281608093E302C8010E94AB
:1033900045174DC07A2DB98AA88A6E2D89890E9459
:1033A000B81786E0F60111928A95E9F71BC0EE2066
:1033B00009F487CF4D875E878D859E850E94B31760
:1033C000F82E882309F47DCF86E0F801AEEDB2E057
:1033D00001900D928A95E1F78EED92E00E948014A3
:1033E0000E9406180E94F81722C04D875E878D85BF
:1033F0009E850E94A61C292F22952F70223028F42A
:103400009F7039F0811105C00BC0243028F49F70E3
:1034100049F4805E883020F0C8010E9445179F2C37
:10342000F92C05C0F8019581907F99F7F9CF8F2D80
:1034300061960FB6F894DEBF0FBECDBFDF91CF917E
:103440001F910F91FF90EF90DF90CF90BF90AF90C2
:103450009F90089588EC90E008951F93CF93DF9399
:10346000CDB7DEB72C970FB6F894DEBF0FBECDBF39
:103470004F83588769877A878B879C87CE01079609
:103480000E9472188823D1F09F8188852A853B8508
:10349000232B31F08F3F31F481E09F3F19F403C0BB
:1034A00081E001C080E080FD47C04F81588569857B
:1034B0007A858B859C850E94C7173EC086E0FE01F9
:1034C0003796DE01119601900D928A95E1F7FF8102
:1034D000E8856A857B856115710531F0EF3F31F430
:1034E00081E0FF3F19F403C081E001C080E080FD6E
:1034F00023C02091AD0230E0C90101968770992761
:103500004091AC0250E084179507F1F1F983EA830A
:103510007D836C8396E0929FD001939FB00D112420
:10352000A255BD4FFE01319601900D929A95E1F79B
:103530008093AD020E94D71716E08091AC02909163
:10354000AD02891771F1189FC001112482559D4F5A
:103550000E947218882329F1E091AC021E9FF001AD
:103560001124E255FD4F4081518162817381848134
:1035700095810E94C7178091AC0290E001968770F8
:1035800099278093AC02D9CF0E948B171092AD027D
:103590001092AC02EEEDF2E086E0DF011D928A951A
:1035A000E9F72C960FB6F894DEBF0FBECDBFDF91C2
:1035B000CF911F910895089508950C94DC1A0C94EE
:1035C000DD1A0E94DF1A6093100370931103809339
:1035D0001203909313030C9475170C94E11A0F9334
:1035E0001F93009110031091110320911203309149
:1035F0001303602B712B822B932B1F910F910C9433
:10360000E11A0F931F930091100310911103209161
:1036100012033091130360237123822393231F919C
:103620000F910C94E11A0F931F93009110031091C6
:103630001103209112033091130360277127822711
:1036400093271F910F910C94E11A0C94DC1A0E949D
:10365000251B60930C0370930D0380930E039093CE
:103660000F030C94751760E070E0CB010C94271BDE
:10367000611571058105910529F481E0442361F00C
:1036800080E00895DC01CB0104C0B695A79597951D
:1036900087954A95D2F781700895482F60910C0361
:1036A00070910D0380910E0390910F030C94381BC1
:1036B0000F931F9341E050E060E070E08A019B01AE
:1036C00004C0000F111F221F331F8A95D2F7C901B2
:1036D000B8011F910F910C94271B0F931F9341E08A
:1036E00050E060E070E004C0440F551F661F771F74
:1036F0008A95D2F780910C0390910D03A0910E034F
:10370000B0910F038A019B01082B192B2A2B3B2B0D
:10371000C901B8011F910F910C94271B0F931F93A0
:1037200041E050E060E070E004C0440F551F661FA8
:10373000771F8A95D2F74095509560957095809146
:103740000C0390910D03A0910E03B0910F038A0119
:103750009B01082319232A233B23C901B8011F9188
:103760000F910C94271B0F931F9341E050E060E0F2
:1037700070E004C0440F551F661F771F8A95D2F76B
:1037800080910C0390910D03A0910E03B0910F0353
:103790008A019B01082719272A273B27C901B8015D
:1037A0001F910F910C94271B0F931F9300910C03F3
:1037B00010910D0320910E0330910F03602B712B9C
:1037C000822B932B1F910F910C94271B0F931F9308
:1037D00000910C0310910D0320910E0330910F0303
:1037E00060237123822393231F910F910C94271B35
:1037F0000F931F9300910C0310910D0320910E0362
:1038000030910F0360277127822793271F910F9113
:103810000C94271B0895292F220F920F990F890FBF
:10382000E82FE695E695E695877051E001C0550FC3
:103830008A95EAF785E0E89FF0011124EC51FD4FED
:1038400020E030E070E04081CB01022E02C096956E
:1038500087950A94E2F781708195842785238427D0
:1038600081932F5F3F4F2530310569F70895292F48
:10387000220F920F990F890F682F669566956695AE
:10388000982F977085E0689FB001112440E050E0C8
:1038900080E0FB01E40FF51FEC51FD4F208130E08B
:1038A000092E02C0369527950A94E2F72170332736
:1038B000042E01C0220F0A94EAF7822B4F5F5F4F5C
:1038C0004530510531F70895BF92CF92DF92EF92C4
:1038D000FF920F931F93CF93DF938C01C0900C0343
:1038E000D0900D03E0900E03F0900F038091100331
:1038F00090911103A0911203B0911303C82AD92A01
:10390000EA2AFB2ACFE1D0E0D701C6010C2E04C081
:10391000B695A795979587950A94D2F780FD04C030
:10392000219790F7B12C07C0BC2EB8018C2F0E94B4
:103930001D070197A9F38B2DDF91CF911F910F9157
:10394000FF90EF90DF90CF90BF900895CF93DF93DB
:10395000EC010E94641CBE010E941D07DF91CF9103
:1039600008951F93CF93DF93EB019091AB029923BE
:1039700021F0CB010E94A61C13C0882349F0CB0183
:103980000E94641C182F682FCE010E940B1C04C0DB
:10399000CB010E94371C182FBE01812F0E941D07EA
:1039A000DF91CF911F91089580911403859585959E
:1039B000859508958091140387700895909114035C
:1039C000977081E009F480E00895809138030895AC
:1039D00090913803892B80933803089580959091B6
:1039E000380389238093380308951092380308958B
:1039F00090913703892B8093370308958095909198
:103A0000370389238093370308951092370308956D
:103A100010923603089580911503089508950C942B
:103A20000E1D0C940F1D90911503981721F0809393
:103A300015030C94111D089580911503882329F016
:103A40001092150380E00C94111D0895E09152012D
:103A5000F0915301809138038083E0915201F091FD
:103A60005301908180913703892B8083E09152012B
:103A7000F0915301908180913603892B808380914E
:103A80001503882381F0E0915201F0915301908158
:103A9000892B808380915201909153010E94351EA1
:103AA00081110E941C1D80915201909153010C9430
:103AB00046130C940E1D98E0899F90011124262B2B
:103AC000209314030E946D1B8091140385958595A6
:103AD00085950C94591D1092140380E00C94591D87
:103AE000209114038095822380931403982F97705C
:103AF00079F430E0482F082E000C550B24173507B9
:103B000039F08595859585950E948E1B0C946B1DCB
:103B1000089580E090E00E94B82921E08C3E9E4FFD
:103B200009F020E0822F089582E090E00C94B02903
:103B300083E090E00C94B029682F83E090E00C942F
:103B4000BE29CF9384E090E00E94B029C82F81E283
:103B500090E00E94B0292C2F30E0A901582BCA0117
:103B6000CF910895CF93C92F682F84E090E00E94F1
:103B7000BE296C2F81E290E0CF910C94BE29AB015D
:103B8000BC018FE090E00C94D029AB01BC0183E133
:103B900090E00C94D02960E070E0CB010C94C51D3E
:103BA00060E070E0CB010E94BF1D0C94CB1D6CEE59
:103BB0007EEF80E090E00E94DC2960E082E090E00F
:103BC0000E94BE2960E083E090E00E94BE2910922E
:103BD000100310921103109212031092130360E06D
:103BE00084E090E00E94BE2960E081E290E00E94C3
:103BF000BE2960E085E090E00E94BE2960E086E09A
:103C000090E00E94BE296FEF87E090E00E94BE29FD
:103C100040E050E0BA0188E090E00E94D02960E0E6
:103C20008DE090E00E94BE2940E050E0BA0188E1BA
:103C300090E00E94D02960E087E190E00E94BE29D8
:103C400040E050E0BA018CE190E00E94D02960E0B1
:103C500080E290E00E94BE290C94D01D0C94D71DE8
:103C6000682F8EE090E00C94BE29FC013296809182
:103C70005E01882331F08091C70587FF02C09EE175
:103C800001C096E080E0915028F021912223D9F3E1
:103C90008F5FF9CF0895662351F120915E012223B1
:103CA000E9F02091C70527FF19C0462F4695469594
:103CB00046954E31E0F4677021E030E002C0220FFB
:103CC000331F6A95E2F7FC01E40FF11D828190E059
:103CD0002823392381E0232B69F409C0FC013296A3
:103CE00008962191621729F0E817F907D1F780E0CB
:103CF000089581E008959C01FC0132969FEF80E0D9
:103D00004191461789F09F3F19F4411101C0982F46
:103D10008F5F8630A9F79F3F39F0F901E90FF11D58
:103D200097FDFA956283089508959C012A5F3F4F9D
:103D3000FC014281461301C012820196821793074B
:103D4000B9F70895262F2695269526952E3168F4E5
:103D5000FC01E20FF11D677021E030E001C0220F8D
:103D60006A95EAF78281282B22830895262F2695CB
:103D7000269526952E3170F4FC01E20FF11D677037
:103D800021E030E001C0220F6A95EAF72095828198
:103D900028232283089520915E01222329F0209177
:103DA000C70527FD0C94A21E0C947B1E20915E017A
:103DB000222329F02091C70527FD0C94B61E0C94F0
:103DC000951E20915E01FC013296222331F08091F4
:103DD000C70587FF02C08EE101C086E0DF011D92AA
:103DE0008A95E9F7089508950C94F31E0C94F31E38
:103DF000CF930E94F61E0E9489090E94F41EC0E023
:103E00008C2F0E94E508811104C0CF5FCA30C1F732
:103E100001C081E0CF9108950C94F31E0C940C1F07
:103E20000E940E1F8091CD05843049F110923A0313
:103E300020E488E190E00FB6F894A89580936000A4
:103E40000FBE2093600080E00E94B4060E940E1F07
:103E500083B7817F846083BF83B7816083BF789499
:103E6000889583B78E7F83BF0FB6F894A89580910D
:103E70006000886180936000109260000FBE08951A
:103E80000C94F31E0E948B170E943A130E94B406F2
:103E90000C94401F1F920F920FB60F9211248F9314
:103EA0009F93AF93BF9380913A03811113C0809188
:103EB000C3059091C405A091C505B091C605419672
:103EC000A11DB11D8093C3059093C405A093C505A2
:103ED000B093C605BF91AF919F918F910F900FBE88
:103EE0000F901F90189582E084BD93E095BD9AEFE6
:103EF00097BD80936E0008952FB7F8948091C30505
:103F00009091C405A091C505B091C6052FBF089535
:103F10002FB7F8946091C3057091C4058091C505D1
:103F20009091C6052FBF08959C014FB7F8948091DA
:103F3000C3059091C405A091C505B091C6054FBFBA
:103F4000821B930B089578941F920F920FB60F92D5
:103F500011248F939F93AF93BF938091C30590914A
:103F6000C405A091C505B091C6050196A11DB11D5E
:103F70008093C3059093C405A093C505B093C6056F
:103F8000BF91AF919F918F910F900FBE0F901F9097
:103F9000189587E797E790930108809300089AE0C7
:103FA00088E10FB6F894A895809360000FBE9093B7
:103FB0006000FFCF0E94891D811102C00E942E1E49
:103FC0000E94941D809339030E94A11D9093C805FF
:103FD0008093C7050E94981D682F70E080E090E0F4
:103FE0000E94ED1A60910C0370910D0380910E03F5
:103FF00090910F030C94251B80915B030895089505
:10400000CF93DF9300D01F92CDB7DEB79091CD054F
:10401000943019F589837B836A8382E08093E90079
:104020008FEF9091E800815095FD06C095ED9A952F
:10403000F1F700008111F5CF8091E80085FF0DC0F8
:1040400040E050E063E070E0CE0101960E940E2255
:104050008091E8008E778093E8000F900F900F908A
:10406000DF91CF910895BC0184E00C940020BC0145
:1040700083E00C940020CF93DF9320915E012223F4
:1040800039F02091C70527FF03C060E222E002C09B
:1040900068E021E02093E9002FEF3091E800215003
:1040A00035FD06C035ED3A95F1F700002111F5CF49
:1040B0002091E80025FF1DC0EC0180915E01811177
:1040C00005C040E050E068E070E003C070E040E010
:1040D00050E0CE010E940E228091E8008E778093FE
:1040E000E80080E2FE01ABE3B3E001900D928A9517
:1040F000E1F7DF91CF9108958091CC05811109C03E
:104100000E949F230E94FC238091E20084608093A0
:10411000E20008951092CC050895089508950C9436
:10412000421F42E061EC81E00E94182342E261EC10
:1041300082E00C9418238091CF05833009F460C08D
:1041400030F4813071F0823009F499C008958A30DA
:1041500009F485C08B3009F46BC0893009F0A7C021
:1041600020C08091CE05813A09F0A1C08091E8007D
:10417000877F8093E8008091D2059091D305892BA9
:1041800021F460E28BE393E003C060E080E090E024
:1041900070E00E9459228091E8008B778093E800BC
:1041A00008958091CE05813209F081C08091D205B9
:1041B0009091D305029708F07AC08091E800877F3C
:1041C0008093E8008091E80082FD05C08091CD05D4
:1041D0008111F8CF6CC02091F3008091F20090E043
:1041E000922B029729F48091F1008B7F813021F48A
:1041F0008091F10080935B038091E8008B7753C03E
:104200008091CE05813A09F052C08091D2059091FB
:10421000D305892B09F04BC08091E800877F8093FC
:10422000E8008091E80080FFFCCF80915E0136C0FD
:104230008091CE058132D9F58091D2059091D30538
:10424000892BA9F58091E800877F8093E8000E9480
:104250004D238091D00580935E010C948B17809143
:10426000CE05813221F58091E800877F8093E800B8
:104270000E944D238091D10580935C030895809125
:10428000CE05813AA1F48091E800877F8093E80011
:104290008091E80080FFFCCF80915C038093F10067
:1042A0008091E8008E778093E8000C944D23089568
:1042B00084B7877F84BF0FB6F894A895809160007B
:1042C000886180936000109260000FBE90E080E8EB
:1042D0000FB6F89480936100909361000FBE0E9426
:1042E0009C130E949F230E94FC238091E200846023
:1042F0008093E20078940E9491260E94A41384E5A2
:1043000091E00E9435138091CD05853069F40E94BB
:10431000101F8091CB058823B1F30E94F81E8823DB
:1043200091F30E94F821EFCF0E94B113ECCF0C94CF
:104330009921292F332723303105C9F060F421302A
:10434000310581F02230310509F04AC08BE390E05D
:1043500024E638E049C02132310511F1223231051D
:1043600079F13EC082E190E02FE938E03DC0992725
:104370008130910561F040F08230910559F003974A
:1043800079F5E8E3F8E008C0E0E6F8E005C0EEE41F
:10439000F8E002C0EEE3F8E0849190E09F0124C0D1
:1043A0006115710541F061307105D1F489E090E04B
:1043B0002FE838E019C089E090E026E738E014C023
:1043C0006115710541F06130710551F48DE690E0A1
:1043D00021EB38E009C080E490E02EE139E004C030
:1043E00080E090E020E030E0FA01318320830895FE
:1043F00080E189BD82E189BD09B400FEFDCF8091D5
:10440000D8008F7D8093D8008091E00082608093F7
:10441000E0008091E00081FDFCCF0895CF92DF9213
:10442000EF92FF920F931F93CF93DF93EC018B01D9
:104430007A010E946C23811133C0E114F10439F038
:10444000F70180819181081B190BC80FD91FC12C5E
:10445000D12C0115110519F18091E80085FD16C0D8
:104460008091E8008E778093E800E114F10449F030
:10447000F70180819181C80ED91ED182C08285E06A
:104480000FC00E946C23882321F30AC08991809376
:10449000F10001501109FFEFCF1ADF0ADACF80E0F7
:1044A000DF91CF911F910F91FF90EF90DF90CF9010
:1044B00008952091D4053091D5052617370748F087
:1044C0006115710539F42091E8002E772093E800FA
:1044D00001C0B901FC0120E06115710579F18091FD
:1044E000CD058823F1F18530F1F18091E80083FD5D
:1044F0003CC08091E80082FD2EC08091E80080FFE2
:10450000EBCF2091F3008091F20090E0922B6115A7
:10451000710551F08830910538F421912093F10014
:10452000615071090196F3CF21E0089709F020E06E
:104530008091E8008E778093E800CECF2111CFCF15
:104540000AC08091CD05882361F0853061F08091AB
:10455000E80083FD0AC08091E80082FFF2CF80E08E
:10456000089582E0089583E0089581E00895209100
:10457000D4053091D5052617370748F06115710528
:1045800039F42091E8002E772093E80001C0B901AA
:10459000FC0120E06115710591F18091CD05882322
:1045A00009F440C0853009F43FC08091E80083FDE4
:1045B0003DC08091E80082FD2FC08091E80080FF1F
:1045C000E9CF2091F3008091F20090E0922B6115E9
:1045D000710559F08830910540F424912093F10041
:1045E0003196615071090196F2CF21E0089709F0E8
:1045F00020E08091E8008E778093E800CBCF2111F6
:10460000CCCF0AC08091CD05882361F0853061F060
:104610008091E80083FD0AC08091E80082FFF2CF1C
:1046200080E0089582E0089583E0089581E0089590
:10463000982F973068F59093E900981739F07091AA
:10464000EC002091ED005091F00003C0242F762F54
:1046500050E021FD02C09F5FECCF3091EB003E7F28
:104660003093EB003091ED003D7F3093ED003091C1
:10467000EB0031603093EB007093EC002093ED0081
:104680005093F0002091EE0027FDE5CF80E00895E3
:104690008F708093E90081E008958091CE0587FFB7
:1046A00011C08091E80082FD05C08091CD05811187
:1046B000F8CF11C08091E8008B770BC08091CD05B9
:1046C000882349F08091E80080FFF8CF8091E800CE
:1046D0008E778093E80008952091E4003091E50002
:1046E00095E64091EC00842F817040FF23C08091BB
:1046F000E80080FD1DC08091CD05882399F08530AC
:1047000099F08091EB0085FD11C04091E40050913B
:10471000E5002417350729F3915011F09A01E1CFF4
:1047200084E0089582E0089583E0089581E008958B
:1047300080E008954091E80042FFDDCF08950E9497
:104740000D240E941524E0EEF0E0808181608083DA
:10475000E8EDF0E080818F77808319BCA7EDB0E0B1
:104760008C918E7F8C9380818F7E80831092CC057C
:1047700008950F931F93CF93DF930E940D240E94FF
:104780001524C8EDD0E088818F7788838881806880
:10479000888388818F7D888319BC1092CD05109203
:1047A000C9051092CB051092CA0500EE10E0F80181
:1047B00080818B7F808388818160888342E060E094
:1047C00080E00E941823E1EEF0E080818E7F8083FC
:1047D000E2EEF0E080818160808380818860808368
:1047E000F80180818E7F8083888180618883DF915A
:1047F000CF911F910F910895E8EDF0E080818F7EB9
:104800008083E7EDF0E080818160808384E082BF77
:1048100081E08093CC050C94B923E8EDF0E0808131
:104820008E7F80831092E20008951092DA00109239
:10483000E10008951F920F920FB60F9211242F934B
:104840003F934F935F936F937F938F939F93AF9318
:10485000BF93EF93FF938091E10082FF0BC08091A3
:10486000E20082FF07C08091E1008B7F8093E1002E
:104870000E9490268091DA0080FF1FC08091D800AE
:1048800080FF1BC08091DA008E7F8093DA008091D8
:10489000D90080FF0DC080E189BD82E189BD09B4E6
:1048A00000FEFDCF81E08093CD050E947C2005C0F5
:1048B00019BC1092CD050E948A208091E10080FFF2
:1048C00019C08091E20080FF15C08091E2008E7FC8
:1048D0008093E2008091E20080618093E200809109
:1048E000D80080628093D80019BC85E08093CD0504
:1048F0000E948E208091E10084FF30C08091E20010
:1049000084FF2CC080E189BD82E189BD09B400FE2D
:10491000FDCF8091D8008F7D8093D8008091E100F9
:104920008F7E8093E1008091E2008F7E8093E20091
:104930008091E20081608093E2008091C905882324
:1049400011F084E007C08091E30087FD02C081E0A0
:1049500001C083E08093CD050E948F208091E1000B
:1049600083FF29C08091E20083FF25C08091E10090
:10497000877F8093E10082E08093CD051092C90586
:104980008091E1008E7F8093E1008091E2008E7F34
:104990008093E2008091E20080618093E20042E037
:1049A00060E080E00E9418238091F000886080938E
:1049B000F0000E948D20FF91EF91BF91AF919F91E8
:1049C0008F917F916F915F914F913F912F910F90B8
:1049D0000FBE0F901F9018951F920F920FB60F9257
:1049E00011242F933F934F935F936F937F938F93F4
:1049F0009F93AF93BF93CF93DF93EF93FF93C091B8
:104A0000E900CF708091EC00D82FD17080FDD0E804
:104A10001092E9008091F000877F8093F0007894F5
:104A20000E9430251092E9008091F0008860809308
:104A3000F000CD2BCF70C093E900FF91EF91DF9193
:104A4000CF91BF91AF919F918F917F916F915F9126
:104A50004F913F912F910F900FBE0F901F9018957F
:104A60001F93CF93DF93CDB7DEB7AA970FB6F89415
:104A7000DEBF0FBECDBFEEECF5E08091F10081937B
:104A800025E0E63DF207C9F70E949B208091E800EF
:104A900083FF2EC18091CE059091CF05492F50E024
:104AA0004A30510508F024C1FA01E059FF4F0C9437
:104AB000CC26803821F0823809F01AC108C08091D4
:104AC000CA059091CB05992389F082600FC080912F
:104AD000D2058F70873008F00BC18093E900809178
:104AE000EB0085FB882780F91092E9009091E8009F
:104AF000977F9093E8008093F1001092F100D1C06D
:104B0000282F2D7F09F0F4C0882319F0823061F03E
:104B1000EFC08091D005813009F0EAC0933009F0F0
:104B200080E08093CB052EC08091D00581112AC0F2
:104B30008091D2058F702FEF280F263008F0D8C053
:104B40008093E9002091EB0020FF1CC0933021F4FA
:104B50008091EB00806214C09091EB009061909383
:104B6000EB0021E030E0A90102C0440F551F8A95F7
:104B7000E2F74093EA001092EA008091EB0088602F
:104B80008093EB001092E9008091E800877F80938A
:104B9000E8000E944D23ACC08111AAC01091D0053D
:104BA0001F778091E3008078812B8093E3008091D0
:104BB000E800877F8093E8000E944D238091E80001
:104BC00080FFFCCF8091E30080688093E3001111A7
:104BD00002C082E001C083E08093CD0589C0805887
:104BE000823008F085C08091D0059091D1058C3D30
:104BF00053E0950779F583E08A838AE289834FB78A
:104C0000F894DE01139620E03EE051E2E32FF0E05D
:104C100050935700E49120FF03C0E295EF703F5F8F
:104C2000EF708E2F90E0EA3010F0C79601C0C0966A
:104C30008D939D932F5F243149F74FBF8091E800FA
:104C4000877F8093E8006AE270E0CE0101960E94BF
:104C5000592216C06091D2057091D305AE014F5F05
:104C60005F4F0E949721BC01892B09F441C09091AC
:104C7000E800977F9093E80089819A810E94B7228B
:104C80008091E8008B778093E80032C0803881F50E
:104C90008091E800877F8093E8008091C905809328
:104CA000F1008091E8008E7772CF811121C0809150
:104CB000D0059091D10599270297D4F48091E8000E
:104CC000877F8093E8008091D0058093C9050E947A
:104CD0004D238091C905811106C08091E30087FDB5
:104CE00002C081E001C084E08093CD050E94912044
:104CF0008091E80083FF0AC08091E800877F80935D
:104D0000E8008091EB0080628093EB00AA960FB6DA
:104D1000F894DEBF0FBECDBFDF91CF911F910895F4
:104D20000895CF938091CD058823A1F0C091E9002B
:104D3000CF709091EC00892F817090FD80E8C82B96
:104D40001092E9008091E80083FD0E943025CF7029
:104D5000C093E900CF910895991B79E004C0991F91
:104D6000961708F0961B881F7A95C9F780950895C5
:104D7000AA1BBB1B51E107C0AA1FBB1FA617B70781
:104D800010F0A61BB70B881F991F5A95A9F780959D
:104D90009095BC01CD010895EE0FFF1F0590F49191
:104DA000E02D0994FB01DC0102C005900D924150F9
:104DB0005040D8F70895FB01DC0104C08D910190AB
:104DC000801921F441505040C8F7881B990B089571
:104DD000FB01DC0101900D920020E1F70895AEE0A7
:104DE000B0E0E5EFF6E20C94002A0D891E898F8968
:104DF000988D26E02C831A83098397FF02C080E0F8
:104E000090E801979E838D83AE01455E5F4F698D6B
:104E10007A8DCE0101960E941F274D815E8157FD3C
:104E20000AC02F813885421753070CF49A01F80104
:104E3000E20FF31F10822E96E4E00C941C2AABE0E4
:104E4000B0E0E5E2F7E20C94F2296C017B018A0103
:104E5000FC0117821682838181FFCCC1CE010196AD
:104E60003C01F6019381F70193FD859193FF8191B8
:104E70007F01882309F4BAC1853239F493FD859105
:104E800093FF81917F01853229F4B60190E00E9461
:104E90001629E7CF912C212C312CFFE1F315D8F006
:104EA0008B3279F038F4803279F08332A1F4232DFB
:104EB00020611DC08D3261F0803369F4232D2160A3
:104EC00016C0832D8260382EE32DE4603E2E2AC06A
:104ED000F32DF8601DC037FC2DC020ED280F2A30BF
:104EE00040F08E32B9F436FC81C1232D2064322E7D
:104EF00019C036FE06C08AE0989E200D1124922E1D
:104F000011C0EAE02E9E200D1124222EF32DF06216
:104F10003F2E08C08C3621F4832D8068382E02C0C5
:104F2000883641F4F70193FD859193FF81917F01CC
:104F30008111B3CF982F9F7D9554933028F40C5F47
:104F40001F4F9FE399830DC0833631F0833771F093
:104F5000833509F059C021C0F801808189830E5F33
:104F60001F4F88248394912C530113C02801F2E031
:104F70004F0E511CF801A080B18036FE03C0692D90
:104F800070E002C06FEF7FEFC5010E940B294C015A
:104F90008201F32DFF773F2E16C0280122E0420E3A
:104FA000511CF801A080B18036FE03C0692D70E06D
:104FB00002C06FEF7FEFC5010E9400294C01F32D65
:104FC000F0683F2E820133FC1BC0822D90E08816D2
:104FD0009906B0F4B60180E290E00E9416292A9466
:104FE000F4CFF50137FC859137FE81915F01B60161
:104FF00090E00E94162921102A9421E0821A91083B
:105000008114910471F7E8C0843611F0893641F5B6
:10501000F80137FE07C060817181828193810C5F46
:105020001F4F08C060817181072E000C880B990BFF
:105030000E5F1F4FF32DFF763F2E97FF09C090950F
:105040008095709561957F4F8F4F9F4FF0683F2EF1
:105050002AE030E0A3010E945229882E861845C01C
:10506000853731F4232D2F7EB22E2AE030E025C083
:10507000932D997FB92E8F36C1F018F4883579F0C9
:10508000B5C0803719F0883721F0B0C0E92FE06152
:10509000BE2EB4FE0DC0FB2DF460BF2E09C034FE41
:1050A0000AC0292F2660B22E06C028E030E005C0D5
:1050B00020E130E002C020E132E0F801B7FE07C095
:1050C00060817181828193810C5F1F4F06C0608176
:1050D000718180E090E00E5F1F4FA3010E94522972
:1050E000882E8618FB2DFF773F2E36FE0DC0232D10
:1050F0002E7FA22E891458F434FE0BC032FC09C056
:10510000832D8E7EA82E05C0B82CA32C03C0B82CEE
:1051100001C0B92CA4FE0FC0FE01E80DF11D808175
:10512000803321F49A2D997EA92E09C0A2FE06C0D3
:10513000B394B39404C08A2D867809F0B394A3FC89
:1051400011C0A0FE06C0B21488F4280C922C9B1843
:105150000EC0B21460F4B60180E290E00E941629FD
:10516000B394F7CFB21418F42B1802C0982C212C4A
:10517000A4FE10C0B60180E390E00E941629A2FEB2
:1051800017C0A1FC03C088E790E002C088E590E06A
:10519000B6010CC08A2D867859F0A1FE02C08BE2C0
:1051A00001C080E2A7FC8DE2B60190E00E941629C2
:1051B000891438F4B60180E390E00E9416299A948D
:1051C000F7CF8A94F301E80DF11D8081B60190E0DC
:1051D0000E9416298110F5CF222009F442CEB60193
:1051E00080E290E00E9416292A94F6CFF60186818B
:1051F000978102C08FEF9FEF2B96E2E10C940E2A6D
:10520000FC010590615070400110D8F78095909591
:105210008E0F9F1F0895FC01615070400190011096
:10522000D8F7809590958E0F9F1F08950F931F9329
:10523000CF93DF93FB01238121FD03C08FEF9FEF0D
:105240002CC022FF16C04681578124813581421728
:10525000530744F4A081B1819D012F5F3F4F3183FB
:1052600020838C93268137812F5F3F4F378326839E
:1052700014C08B01EC01FB010084F185E02D099540
:10528000892BE1F6D80116968D919C91179701967E
:1052900017969C938E931697CE01DF91CF911F9115
:1052A0000F910895FA01AA27283051F1203181F198
:1052B000E8946F936E7F6E5F7F4F8F4F9F4FAF4F1E
:1052C000B1E03ED0B4E03CD0670F781F891F9A1F31
:1052D000A11D680F791F8A1F911DA11D6A0F711DE5
:1052E000811D911DA11D20D009F468943F912AE0F1
:1052F000269F11243019305D3193DEF6CF010895D9
:10530000462F4770405D4193B3E00FD0C9F7F6CF09
:10531000462F4F70405D4A3318F0495D31FD4052D1
:10532000419302D0A9F7EACFB4E0A6959795879567
:1053300077956795BA95C9F7009761057105089546
:105340009B01AC010A2E06945795479537952795F2
:10535000BA95C9F7620F731F841F951FA01D08958A
:10536000F999FECF92BD81BDF89A992780B508952D
:10537000A8E1B0E042E050E00C94E429262FF9992E
:10538000FECF92BD81BDF89A019700B4021639F0A4
:105390001FBA20BD0FB6F894FA9AF99A0FBE089575
:1053A0000396272F0E94BF290E94BE29252F0E9405
:1053B000BF29242F0C94BF290196272F0E94BF29B3
:1053C0000C94BE29DC01CB01FC01F999FECF06C08B
:1053D000F2BDE1BDF89A319600B40D9241505040B3
:1053E000B8F708952F923F924F925F926F927F92FB
:1053F0008F929F92AF92BF92CF92DF92EF92FF92E5
:105400000F931F93CF93DF93CDB7DEB7CA1BDB0B90
:105410000FB6F894DEBF0FBECDBF09942A88398835
:1054200048885F846E847D848C849B84AA84B9843C
:10543000C884DF80EE80FD800C811B81AA81B98148
:10544000CE0FD11D0FB6F894DEBF0FBECDBFED015C
:065450000895F894FFCF5F
:10545600808182838485868788898A8B8C8D8E8FCE
:105466009091929394A0A1A2A3A4A5A6A7A8A9AA45
:10547600ABACADAEAFB0B1B2B3B4C0C1C2C3C4C5BC
:10548600C6C7C8C9CACBCCCDCECFD0D1D2D3D40013
:105496000900015902005A02065A020021007F2221
:1054A60000031603FC1F3B20FF1F37203320014C4F
:1054B600617965723A2044656661756C74004C6169
:1054C6007965723A205261697365004C617965723B
:1054D6003A204C6F776572004C617965723A2041CB
:1054E600646A757374004C617965723A20556E640E
:1054F60065662D256C64006F6E002D20004E4C3ABB
:10550600257320434C3A257320534C3A25730025C6
:1055160069202020256900E200E900EA00B500B60E
:1055260000B700CD008301CC008A019201940121CD
:1055360002230224022502260227022A02B300B40D
:10554600006F007000818283F6F73133323666973A
:10555600C63435000000000000FF0100010000FF16
:10556600FF0000010001FF000008101818100800D5
:10557600E200E900EA00B500B600B700CD008301FD
:10558600CC008A0192019401210223022402250201
:10559600260227022A02B300B4006F00700081823F
:0255A600830080
:00000001FF
